:020000040800F2
:10000000F80E0020E5020008ED0200089502000845
:10001000F1020008F3020008F502000800000000E9
:10002000000000000000000000000000F7020008CF
:10003000F90200080000000017020008F11F000884
:10004000FF020008FF020008FF020008FF0200088C
:10005000FF020008FF02000861080008AF0800085E
:10006000C1080008D3080008E5080008FF020008DE
:10007000FF020008FF020008FF020008FF0200085C
:10008000FF020008FF020008FF020008FF0200084C
:10009000FF020008FF020008FF020008F70800083E
:1000A000FF020008FF020008FF020008FF0200082C
:1000B000FF020008FF020008FF020008FF0200081C
:1000C000FF020008FF020008FF020008FF0200080C
:1000D000FF0200082D250008FF020008FF020008AB
:1000E00073080008FF020008FF02000800F002F891
:1000F00000F063F80AA090E8000C82448344AAF15F
:100100000107DA4501D100F058F8AFF2090EBAE85C
:100110000F0013F0010F18BFFB1A43F0010318473B
:10012000E4C9000004CA00000A444FF0000C10F8B3
:10013000013B13F0070408BF10F8014B1D1108BF65
:1001400010F8015B641E05D010F8016B641E01F805
:10015000016BF9D113F0080F1EBF10F8014BAD1C55
:100160000C1B09D16D1E58BF01F801CBFAD505E073
:1001700014F8016B01F8016B6D1EF9D59142D6D3CD
:10018000704700000023002400250026103A28BFF5
:1001900078C1FBD8520728BF30C148BF0B607047F9
:1001A0001FB500F051FA0400002000210BF04EFBB7
:1001B000401C60601FBD10B510BD00F0FAFA11467A
:1001C000FFF7EEFF00F031FB00F026FB03B4FFF772
:1001D000F2FF03BC03F01EFB002804D090FAA0F04D
:1001E000B0FA80F0401C7047EFF3108072B6704791
:1001F00080F310887047344A1368012B04D04FF005
:1002000001031360314A1060314A116031484FF0E8
:10021000805101607047EFF3108272B62A4801687E
:1002200091B14FF0000101602848016829B1EFF356
:10023000098121E9F00F0068016025490968096812
:10024000B1E8F00F81F3098882F310884EF0040EB4
:1002500070471F4908601D494FF0000008601A49A7
:100260004FF0010008601C481C49D0F8002041EA0A
:100270000201016017484FF0805101601848006882
:10028000006880F3088861B662B6BFF34F8FBFF392
:100290006F8F70471EF0040F0CBFEFF30880EFF371
:1002A000098020E9F00F40F804ED1EF0040F0CBFA8
:1002B00080F3088880F3098800B506F097FF5DF8A1
:1002C00004EB4EF0040E70470800002000000020F0
:1002D0000400002004ED00E020ED00E00000FFFF3E
:1002E00008ED00E00948804709480047FEE7FEE7BF
:1002F000FEE7FEE7FEE7FEE7FEE7FEE7FEE7FEE7D6
:1003000004480549034A054B70470000B92000081E
:10031000ED000008F80A0020F80E0020F80A00207E
:100320007047000010B500F08FF9001D10BD00BF30
:100330001DB5000010B50446FFF7F4FF0068005D2E
:10034000000704D5DF2C02D0A4F1200010BD204608
:1003500010BD70B5064600F07BF9046805463046CE
:100360000A22002100F078F92C6070BD10B5431E00
:1003700013F8014F002CFBD105E011F8014B002CC4
:1003800003F8014B03D0521EF7D20021197010BDA3
:1003900040EA010310B59B070FD1042A0DD310C802
:1003A00008C9121F9C42F8D020BA19BA884201D954
:1003B000012010BD4FF0FF3010BD1AB1D30703D09C
:1003C000521C07E0002010BD10F8013B11F8014B52
:1003D0001B1B07D110F8013B11F8014B1B1B01D16E
:1003E000921EF1D1184610BD40EA0103024630B515
:1003F0009B0710D14FF0013400E008C208C91D1B53
:100400009D4315EAC41FF8D013F0FF0102F8011B49
:100410000DD01B0AF8E711F8013B002B02F8013B55
:1004200005D011F8013B002B02F8013BF3D130BDA0
:1004300010B5431C02E010F8011B71B18107FAD11D
:100440004FF0013202C88C1A8C4314EAC211F9D061
:10045000C01A0A0603D0C01E10BDC01A10BD0A047F
:1004600001D0801E10BD0902FCD0401E10BD40EA24
:10047000010370B59B072ED14FF00136042A2AD311
:1004800008C810C99D1B9D43121F15EAC61517D039
:10049000D8B2E1B2401A50EA056110D198B2A1B2C7
:1004A000401A50EA05410AD123F07F4024F07F41F1
:1004B000401A50EA052102D1180EA0EB146070BD5D
:1004C000A342DBD018BA21BA884201D9012070BDFD
:1004D0004FF0FF3070BD0AB9002070BD10F8013B2D
:1004E00011F8014B63B1A3420AD1521E08D010F893
:1004F000013B11F8014B1BB1A34201D1521EEDD1BA
:10050000181B70BD421E12F8013F002BFBD111F8E1
:10051000013B002B02F8013BF9D170474FF000027C
:1005200000B5134694469646203922BFA0E80C50E9
:10053000A0E80C50B1F12001BFF4F7AF090728BFC4
:10054000A0E80C5048BF0CC05DF804EB890028BF40
:1005500040F8042B08BF704748BF20F8022B11F069
:10056000804F18BF00F8012B704710B5044610F0FB
:10057000030F08BF11F0030F40F015804FF0013E4C
:10058000121FC0F20E8051F8043BA3EB0E0C2CEAB4
:10059000030C1CEACE1C08BF40F8043BF0D0A1F1CC
:1005A000040102F10402521E08DB11F8013B002B8A
:1005B00000F8013BF7D1114600F086F8204610BD47
:1005C0004FF0013C50F8042B51F8043B9A4221D1E2
:1005D000A2EB0C03934313EACC1317D150F8042B6E
:1005E00051F8043B9A4215D1A2EB0C03934313EA52
:1005F000CC130BD150F8042B51F8043B9A4209D18B
:10060000A2EB0C03934313EACC13DBD04FF00000B2
:10061000704700BFD01A01BAB1FA81F101F0180198
:1006200022FA01F0CB40C1F12001DBB2C0B2C01A06
:100630002CFA01F3D11A914311EAC311E6D17047A4
:10064000704770477047000000487047B80A0020A4
:1006500000487047980A00202DE9F04791460F4660
:1006600080460446002614F8015B2DB1FFF75AFEC0
:100670000068405DC007F6D12B2D02D02D2D18D07B
:10068000641E4A463946204600F044F827B13968CE
:10069000A14201D1C7F800804FF0020471050BD5CB
:1006A0004042002803DDFFF7D3FF0460A007BDE848
:1006B000F08746F48066E4E70028F8DAFFF7C8FF21
:1006C00004606FF00040F2E74FF000020429C0F030
:1006D000128010F0030C3FF423AFCCF1040CBCF1FA
:1006E000020F18BF00F8012BA8BF20F8022BA1EBC6
:1006F0000C01FFF715BF5FEAC17C24BF00F8012B96
:1007000000F8012B48BF00F8012B704700487047E4
:10071000980A00202DE9F05F824615468B46002797
:100720000AF10104B9460078302801D09DB113E0E8
:1007300014F8010B0127782803D0582801D045B1BF
:100740000AE00DB1102D07D1002714F8010B102578
:1007500002E0082500E00A250026B0460EE005FB71
:10076000080005FB06F101271FFA80F801EB10468F
:10077000B6F5803F00D3B94614F8010B294600F0C6
:100780003DF80028EBDABBF1000F05D00FB1641E75
:1007900000E05446CBF80040B9F1000F06D0FFF757
:1007A00057FF02210160C81EBDE8F09F48EA0640DD
:1007B000FAE77546FFF7AAFFAE46050069465346BD
:1007C00020F00700854618B020B5FFF799FDBDE879
:1007D00020404FF000064FF000074FF000084FF0A8
:1007E000000B21F00701AC46ACE8C009ACE8C00939
:1007F000ACE8C009ACE8C0098D4670473A2800D281
:10080000303820F02002412A01D3A2F1370088427B
:1008100001D34FF0FF30704710B50446AFF30080AE
:100820002046BDE81040FFF7D1BC10B50AF0D8F85B
:10083000002010BD30B590F840500124AC40C56B8D
:100840006C60046863604468102C04D10468A26082
:100850000468E16003E00468A1600468E26030BD00
:1008600010B507F003F8012000F048FA07F028F867
:1008700010BD10B506F0FAFF4FF4806000F03EFAAC
:100880004FF4006000F03AFA4FF4805000F036FA6E
:100890004FF4005000F032FA4FF4804000F02EFA8E
:1008A0004FF4004000F02AFA07F00AF810BD10B526
:1008B00006F0DCFF022000F021FA07F001F810BD7D
:1008C00010B506F0D3FF042000F018FA06F0F8FF88
:1008D00010BD10B506F0CAFF082000F00FFA06F0B0
:1008E000EFFF10BD10B506F0C1FF102000F006FAB2
:1008F00006F0E6FF10BD10B506F0B8FF202000F0AE
:10090000FDF9402000F0FAF9802000F0F7F94FF4EB
:10091000807000F0F3F94FF4007000F0EFF906F08A
:10092000CFFF10BD0146002291F82100022808D017
:100930000420886300BF002081F8200000BF012050
:1009400070470868006820F00E000B68186008689F
:10095000006820F001000B68186091F84030012019
:100960009840CB6B5860012081F8210000BF002027
:1009700081F8200000BF1046E2E7000070B5044691
:10098000002594F82100022803D00420A06301254B
:1009900048E02068006820F00E00216808602068A8
:1009A000006820F00100216808601F492068884223
:1009B00001D1012026E01C4914312068884201D170
:1009C00010201FE0184928312068884201D1801585
:1009D00018E015493C312068884201D1801411E0AB
:1009E000114950312068884202D14FF4803009E02B
:1009F0000D4964312068884202D14FF4801001E033
:100A00004FF08070084908394860012084F82100BF
:100A100000BF002084F8200000BF606B10B12046AA
:100A2000616B8847284670BD08000240014609B93D
:100A3000012070470868006820F001000A68106013
:100A400000200A6810600A6850600A6890600A68AE
:100A5000D0600F4A0868801A1422B0FBF2F08000C0
:100A600008640B480838C86391F840200120904082
:100A7000CA6B506000208862C8620863486388635C
:100A800081F8210000BF81F8200000BF00BFD0E73F
:100A9000080002400146002209B901207047164BA8
:100AA0000868C01A1423B0FBF3F0800008641248F1
:100AB0000838C863022081F821000868026843F6FC
:100AC000F0708243D1E901031843CB6818430B69E6
:100AD00018434B6918438B691843CB691843024389
:100AE0000868026000208863012081F8210000204E
:100AF00081F8200000BFD1E7080002402DE9F04155
:100B000004460D4616461F464FF0000800BF94F8F5
:100B10002000012802D10220BDE8F081012084F8E4
:100B2000200000BF94F8210001282CD1022084F875
:100B300021000020A0632068006820F001002168E7
:100B400008603B46324629462046FFF773FEE06ABE
:100B500030B12068006840F00E00216808600BE0AA
:100B60002068006820F004002168086020680068A0
:100B700040F00A00216808602068006840F0010029
:100B80002168086006E000BF002084F8200000BF54
:100B90004FF002084046BFE72DE9F04102460B4600
:100BA00000207FE00127874007EA0301002978D071
:100BB000404F4FEA900C57F82C4087074FEA177CBC
:100BC0000F2707FA0CF73C403B4FBA4201D10027F0
:100BD0000FE03A4FBA4201D101270AE0384FBA423A
:100BE00001D1022705E0374FBA4201D1032700E0C7
:100BF00004274FEA807C4FEA1C7C07FA0CF7A742D7
:100C000030D187074FEA177C0F2707FA0CF4294FDA
:100C10004FEA900C57F82C70A743DFF898C04FEAC2
:100C200090084CF82870284F3F688F43DFF898C031
:100C3000CCF800700CF104073F688F430CF1040CF2
:100C4000CCF800700CF104073F688F430CF1040CE2
:100C5000CCF800700CF104073F688F430CF1040CD2
:100C6000CCF80070FF2901D8174600E0171D3D465B
:100C7000FF2901D8870002E0A0F10807BF003E4627
:100C80002F684FF00F0C0CFA06FC27EA0C074FF008
:100C9000040C0CFA06FC47EA0C072F60D7688F4358
:100CA000D760401C23FA00F7002F7FF47BAFBDE82C
:100CB000F08100000800014000080140000C0140E4
:100CC00000100140001401400004014070B50546C9
:100CD000284602F051FF0446074800EB04108068E4
:100CE00040B1054A02EB0412D068034A02EB041239
:100CF0009168884700BF70BD1800002010B50446F9
:100D000004480068204020B1024804602046FFF7F4
:100D1000DDFF10BD140401402DE9F8470346002211
:100D200094466EE14FF0010808FA02F4D1F8008011
:100D300008EA0400A0427DD1DFF8DCA2D1F80480EB
:100D4000A8EB0A09D0453AD014DCB8F1030F50D013
:100D500009DCB8F1000F31D0B8F1010F1CD0B8F1A7
:100D6000020F49D120E0B8F1110F18D0B8F1120FDD
:100D700042D11EE0B9F5881F25D006DCB9F5803FC9
:100D800020D0B9F5801F37D11AE0B9F5001F18D06F
:100D9000B9F5041F30D117E0D1F80CC02DE0D1F81F
:100DA0000C8008F1040C28E0D1F80C8008F1080C44
:100DB00023E0D1F80C8008F10C0C1EE000BF00BF4E
:100DC00000BF00BF00BF00BFD1F80880B8F1000F1E
:100DD00002D14FF0040C0BE0D1F80880B8F1010FFC
:100DE00003D14FF0080C1C6102E04FF0080C5C616D
:100DF00003E04FF0000C00E000BF00BFFF2801D867
:100E0000984601E003F104084646FF2802D84FEA5D
:100E1000820803E0A2F108084FEA88084746D6F89E
:100E200000804FF00F0909FA07F928EA09080CFABF
:100E300007F900E088E048EA0908C6F80080D1F820
:100E4000048008F08058B8F1805F7DD100BFDFF8E2
:100E5000CC81D8F8188048F00108DFF8C091C9F8B3
:100E60001880C846D8F8188008F00108CDF800802E
:100E700000BF00BF4FEAB9384FEA920958F829502D
:100E80004FEA82784FEA18794FF00F0808FA09F80C
:100E900025EA0805DFF88881434502D14FF00008B4
:100EA00016E0DFF88081434502D14FF001080FE0E2
:100EB000DFF87481434502D14FF0020808E0DFF803
:100EC0006C81434502D14FF0030801E04FF0040864
:100ED0004FEA82794FEA197908FA09F848EA0505D4
:100EE000DFF84C814FEA920948F82950D1F8048084
:100EF00008F48038B8F5803F0AD1DFF83881D8F897
:100F0000008048EA0008DFF82C91C9F8008009E069
:100F1000DFF82081D8F8008028EA0008DFF8149173
:100F2000C9F80080D1F8048008F40038B8F5003F13
:100F300010D1DFF8008108F10408D8F8008048EAF1
:100F40000008DFF8F09000E05AE009F10409C9F860
:100F500000800DE0DFF8DC8008F10408D8F800809C
:100F600028EA0008DFF8CC9009F10409C9F80080EC
:100F7000D1F8048008F48018B8F5801F0ED1DFF88E
:100F8000B48008F10808D8F8008048EA0008DFF8C3
:100F9000A49009F10809C9F800800DE0DFF89480F9
:100FA00008F10808D8F8008028EA0008DFF88490E3
:100FB00009F10809C9F80080D1F8048008F4001884
:100FC000B8F5001F0ED1DFF86C8008F10C08D8F8D6
:100FD000008048EA0008DFF85C9009F10C09C9F8C4
:100FE00000800DE0DFF84C8008F10C08D8F8008094
:100FF00028EA0008DFF83C9009F10C09C9F80080E4
:10100000521CD1F8008028FA02F8B8F1000F7FF4E2
:1010100089AEBDE8F8870000000011100010024002
:1010200000080140000C0140001001400014014084
:101030000800014000040140024693680B400BB1D8
:10104000012000E0002070470AB1016101E00B04BB
:101050000361704700B54FF0E020006900F4803074
:1010600008B100F005F80148006800BDB00200209A
:10107000034800680349096808440149086070474B
:10108000B00200201400002010B50848006840F0AD
:10109000100006490860032000F0AAF8002000F0C4
:1010A00007F800F00BF8002010BD000000200240FF
:1010B00010B5044606F04AFB002010BD08B500BF7D
:1010C0001148806940F001000F4988610846806935
:1010D00000F00100009000BF00BF00BF0846C069DB
:1010E00040F08050C8610846C06900F08050009010
:1010F00000BF00BF00BF0549486820F0E06000BFA6
:10110000486000BF08BD0000001002400000014020
:1011100010B501460846002817DB00F01F03012226
:101120009A400B4B440943F8242000BF00BF00BF86
:10113000BFF34F8F00BF00BF00BF00BF00BF00BFA5
:10114000BFF36F8F00BF00BF00BF00BF10BD000026
:1011500080E100E001460846002809DB00F01F039B
:1011600001229A4043099B0003F1E023C3F80021C8
:1011700000BF70472DE9F05F80460D4616460027F8
:1011800001F00CFA074639462A46334601F00700BB
:10119000C0F1070ABAF1040F02D94FF0040A01E0C6
:1011A000C0F1070AD14600F1040ABAF1070F02D2D2
:1011B0004FF0000A01E0A0F1030AD4464FF0010A03
:1011C0000AFA09FAAAF1010A0AEA020A0AFA0CFA68
:1011D0004FF0010B0BFA0CFBABF1010B0BEA030B0D
:1011E0004AEA0B042146404601F0E0F9BDE8F09FD1
:1011F00000BF00F00702064B19684FF6FF031940C5
:10120000044B0B4343EA0221014B196000BF7047B6
:101210000CED00E00000FA05F8B5044600260025B4
:10122000207800F0010000286BD000274348C069F7
:1012300000F0805070B900BF4048C06940F0805055
:101240003E49C8610846C06900F08050009000BF68
:1012500000BF01273A48006800F48070B0B93848F0
:10126000006840F4807036490860FFF7F3FE0646D8
:1012700006E0FFF7EFFE801B642801D90320F8BDCC
:101280002F48006800F480700028F2D02B48006AD4
:1012900000F440752DB3A08800F44070A84220D01F
:1012A0002648006A20F44075012026490860002085
:1012B00008602248056205F0010090B1FFF7CAFE00
:1012C000064608E0FFF7C6FE801B41F288318842DF
:1012D00001D90320D3E71948006A00F00200002872
:1012E000F0D01648006A20F4407061680843134942
:1012F0000862012F04D10846C06920F08050C861FF
:1013000000BF207800F00200022807D10B48406897
:1013100020F44040A168084308494860207800F064
:101320001000102807D10548406820F48000E168CB
:101330000843024948600020A1E700000010024075
:10134000007000404004424270B504460D460CB99E
:10135000012070BD5A48006800F00700A8420ED274
:101360005748006820F007002843554908600846A0
:10137000006800F00700A84201D00120E9E72078CA
:1013800000F0020002281DD1207800F0040004289B
:1013900005D14C48406840F4E0604A4948602078F4
:1013A00000F00800082805D14648406840F4605025
:1013B000444948604348406820F0F000A168084371
:1013C00040494860207800F0010078B36068012847
:1013D00006D13C48006800F4003090B90120B8E71D
:1013E0006068022806D13748006800F0007040B9F4
:1013F0000120AEE73348006800F0020008B9012080
:10140000A7E73048406820F00300616808432D4991
:101410004860FFF71FFE064609E0FFF71BFE801B32
:1014200041F28831884202D9032092E707E025483B
:10143000406800F00C006168B0EB810FEDD12048EE
:10144000006800F00700A8420ED91D48006820F08F
:10145000070028431A4908600846006800F00700A2
:10146000A84201D0012074E7207800F0040004288D
:1014700007D11448406820F4E060E168084311494E
:101480004860207800F00800082808D10D4840681E
:1014900020F46050216940EAC1000A49486000F028
:1014A0003FF808494968C1F30311074A515CC84035
:1014B0000649086006480068FFF7FAFD002048E783
:1014C000002002400010024006C30008AC020020C9
:1014D000B40200200148006870470000AC02002000
:1014E00000B5FFF7F7FF04494968C1F30221034A39
:1014F000515CC84000BD00000010024016C3000847
:1015000000B5FFF7E7FF04494968C1F3C221034A68
:10151000515CC84000BD00000010024016C3000826
:10152000F0B585B00FF26C0C9CE8E01001A8A0E8C3
:10153000E0101CA52D680095002100220023002446
:101540000020194D696801F00C05F5B1042D02D099
:10155000082D19D101E0154819E001ADC1F383460A
:10156000AC5D01F4803555B10F4D6D68C5F3404554
:101570001DF805200D4D6543B5FBF2F302E00C4D5F
:1015800004FB05F3184602E000BF084800BF00BF97
:1015900005B0F0BD02030405060708090A0B0C0D8F
:1015A0000E0F1010010200000010024000127A001D
:1015B00000093D00F8B504460CB90120F8BD2078BB
:1015C00000F00100002878D0F848406800F00C00D6
:1015D00004280CD0F548406800F00C00082811D110
:1015E000F248406800F48030B0F5803F0AD1EF48FF
:1015F000006800F4003000285FD0606800285CD1EB
:101600000120DBE700BF6068B0F5803F06D1E74806
:10161000006840F48030E549086028E0606858B907
:10162000E248006820F48030E0490860084600681D
:1016300020F4802008601AE06068B0F5A02F0BD17C
:10164000DA48006840F48020D849086008460068FD
:1016500040F4803008600AE0D448006820F480300C
:10166000D24908600846006820F48020086000BF66
:10167000606888B1FFF7EEFC054606E0FFF7EAFC7C
:10168000401B642801D9032098E7C848006800F48B
:1016900000300028F2D010E0FFF7DCFC054606E041
:1016A000FFF7D8FC401B642801D9032086E7BF4818
:1016B000006800F400300028F2D1207800F0020029
:1016C000022857D1B948406800F00C0050B1B74823
:1016D000406800F00C00082818D1B448406800F4B5
:1016E000803098B9B148006800F0020020B120694C
:1016F000012801D0012061E7AC48006820F0F80023
:10170000616940EAC100A949086033E02069E8B195
:101710000120A7490860FFF79DFC054606E0FFF79A
:1017200099FC401B022801D9032047E79F48006825
:1017300000F002000028F2D09C48006820F0F80079
:10174000616940EAC1009949086013E000209849A6
:101750000860FFF77FFC054606E0FFF77BFC401BB7
:10176000022801D9032029E79048006800F0020010
:101770000028F2D1207800F0080008282DD1A069B7
:10178000B8B101208B490860FFF764FC054606E00C
:10179000FFF760FC401B022801D903200EE78348B5
:1017A000406A00F002000028F2D0012000F00CFC9A
:1017B00013E000207F490860FFF74CFC054606E077
:1017C000FFF748FC401B022801D90320F6E67748C2
:1017D000406A00F002000028F2D1207800F00400F6
:1017E000042873D100277148C06900F0805070B997
:1017F00000BF6E48C06940F080506C49C86108461F
:10180000C06900F08050009000BF00BF01276A4807
:10181000006800F48070B0B96748006840F48070D8
:1018200065490860FFF716FC054606E0FFF712FC65
:10183000401B642801D90320C0E65F48006800F41B
:1018400080700028F2D000BFE068012806D1574818
:10185000006A40F001005549086227E0E06858B985
:101860005248006A20F00100504908620846006AA8
:1018700020F00400086219E0E06805280BD14B480D
:10188000006A40F00400494908620846006A40F0D6
:10189000010008620AE04548006A20F0010043495F
:1018A00008620846006A20F00400086200BFE06891
:1018B000A0B1FFF7CFFB054609E0FFF7CBFB401BCC
:1018C00041F28831884202D9032077E622E0374886
:1018D000006A00F002000028EFD012E0FFF7BAFB28
:1018E000054608E0FFF7B6FB401B41F2883188420D
:1018F00001D9032062E62D48006A00F002000028AA
:10190000F0D1012F05D12948C06920F08050274926
:10191000C86100BFE069C8B32448406800F00C000B
:10192000082860D0E069022848D1002020490866D4
:10193000FFF790FB054606E0FFF78CFB401B0228F3
:1019400001D903203AE61948006800F00070002829
:10195000F2D1206AB0F5803F07D11448406820F4E6
:101960000030A168084311494860D4E908010843E0
:101970000E49496821F4741108430C49486001205C
:101980000B490866FFF766FB054607E03DE0FFF7F9
:1019900061FB401B022801D903200FE603480068C1
:1019A00000F000700028F2D02FE00000001002408C
:1019B000000042428004424200700040002014496E
:1019C0000866FFF747FB054606E0FFF743FB401BB1
:1019D000022801D90320F1E50E48006800F00070EC
:1019E0000028F2D111E0E069012800D1E6E50948BC
:1019F000466806F48031206A814204D106F47011F1
:101A0000606A814201D00120D8E50020D6E50000BF
:101A1000000042420010024070B504462546681E90
:101A2000B0F1807F01D301200FE0681E4FF0E0216C
:101A300048610F214FF0FF3000F0B8FD00204FF05B
:101A4000E021886107200861002070BD704710B553
:101A500004460CB9012010BD242084F83D00206804
:101A6000C06820F400502168C860204600F084F966
:101A70000020206484F83D0084F83E00206300BF0D
:101A800084F83C0000BF00BFE5E7000070B50446E5
:101A90002CB940F23142034903A004F0CBF92546AA
:101AA00070BD0000CABB0008687561727420213DDA
:101AB000204E554C4C0000002DE9F84F044620689C
:101AC00005682068C668206847694FF00009CA4663
:101AD00005F00F09B9F1000F0AD105F0200038B167
:101AE00006F0200020B1204600F0B4FBBDE8F88FDE
:101AF000B9F1000F71D007F0010018B906F4907029
:101B000000286AD005F0010030B106F4807018B1E9
:101B1000206C40F00100206405F0040030B107F0B3
:101B2000010018B1206C40F00200206405F00200B2
:101B300030B107F0010018B1206C40F004002064BF
:101B400005F0080048B106F0200010B907F00100C8
:101B500018B1206C40F008002064206C68B305F0D8
:101B6000200028B106F0200010B1204600F072FBE2
:101B700020684069C0F3801A206C00F0080010B99A
:101B8000BAF1000F22D0204600F02FFB20684069F8
:101B900000F04000B0B12068406920F040002168AA
:101BA0004861A06B50B15648A16B4863A06BFEF72B
:101BB000E5FE10B1A06B416B88470CE02046FFF7B3
:101BC00065FF08E02046FFF761FF04E02046FFF7CD
:101BD0005DFF0020206489E7FFE7206B012878D1B2
:101BE00005F01000002874D006F01000002870D016
:101BF00000BF0020009020680068009020684068C6
:101C0000009000BF00BF2068406900F04000C0B3F2
:101C1000A06B006840681FFA80F8B8F1000F2FD061
:101C2000A08D40452CDDA4F82E80A06B8069202873
:101C30001FD02068C06820F480702168C8602068C8
:101C4000406920F00100216848612068406920F067
:101C5000400021684861202084F83E000020206375
:101C60002068C06820F010002168C860A06BFEF7F3
:101C700059FEA08DE28D801A81B22046FFF7E6FE64
:101C800034E7FFE7A08DE18D401A1FFA80F8E08D60
:101C9000E8B1B8F1000F1AD02068C06820F4907045
:101CA0002168C8602068406920F00100216848610F
:101CB000202084F83E00002020632068C06820F0C7
:101CC00010002168C86041462046FFF7BFFE0DE7BF
:101CD000FFE705F0800030B106F0800018B1204623
:101CE00000F0F4FB02E705F0400030B106F04000E0
:101CF00018B1204600F094FAF8E600BFF6E60000BE
:101D0000BB20000810B504460CB9012010BDA06925
:101D100000B100E000BF94F83D0028B9002084F82D
:101D20003C00204600F044F8242084F83D00206860
:101D3000C06820F400502168C860204600F0FCFA1A
:101D40002068006920F4904021680861206840699B
:101D500020F02A00216848612068C06840F40050E3
:101D60002168C86000202064202084F83D0084F8A9
:101D70003E000020CAE7000010B50446094920686B
:101D800088420DD10848806920F480400649886166
:101D90004FF4C0610548FEF7FFFE2520FFF7B8F9B4
:101DA00010BD000000380140001002400008014052
:101DB00010B586B004460020029003900490059070
:101DC0001E492068884237D100BF1D48806940F411
:101DD00080401B4988610846806900F4804001907A
:101DE00000BF00BF00BF0846806940F00400886162
:101DF0000846806900F00400019000BF00BF48154C
:101E00000290022003900320059002A90D48FEF7DE
:101E100083FF4FF480600290002003900120049023
:101E200002A90848FEF778FF002211462520FFF797
:101E3000A1F92520FFF78EF906B010BD003801404A
:101E4000001002400008014070B504460D461646D9
:101E500094F83E00202816D105B10EB9012070BDBE
:101E600000BF94F83C00012801D10220F7E70120CF
:101E700084F83C0000BF00202063324629462046FB
:101E800000F0D8FAEBE70220E9E7000070B504465D
:101E90002CB940F24142054905A003F0CBFF25468D
:101EA000022105F1D80002F081F870BDE1BB000805
:101EB000687561727420213D204E554C4C00000025
:101EC00070B504462CB94FF48A62054905A003F0A9
:101ED000B1FF2546012105F1D80002F067F870BD79
:101EE000F9BB0008687561727420213D204E554C85
:101EF0004C000000F7B50446154694F83D00202834
:101F00003DD1019800B10DB90120FEBD00BF94F88C
:101F10003C00012801D10220F7E7012084F83C00B1
:101F200000BF01982062A584E58400202064212060
:101F300084F83D001348616B88621348616BC86286
:101F40001248616B08630020616B486301AE23682F
:101F50001A1D31682B46606BFEF7D0FD6FF0400014
:101F60002168086000BF002084F83C0000BF2068A2
:101F7000406940F08000216848610020C5E70220E8
:101F8000C3E70000A7210008DD210008CF200008DA
:101F900070B504462CB940F27242054905A003F021
:101FA00049FF254605F1D80000F040FB70BD000058
:101FB00026BC0008687561727420213D204E554C86
:101FC0004C0000007047000008B508490968C908BE
:101FD0004FF47A72B1FBF2F14143009100BF00BFB0
:101FE00000994A1E00920029F9D108BDAC020020D8
:101FF00010B505F03BFC4FF0E020006900F48030A4
:1020000008B1FFF735F807F0EBFF05F059FC10BDFC
:1020100000B593B0282109A8FEF780FA142104A87E
:10202000FEF77CFA002000900190029003900120BE
:10203000099000040A9000200B9001200D900220CE
:102040001090C10311914FF4E011129109A8FFF70C
:10205000B1FA18B11F2114A000F074FA0F200490F7
:1020600002200590002006904FF480600790002029
:102070000890022104A8FFF767F918B12C210AA0E3
:1020800000F060FA122000904FF40040029000200F
:1020900003906846FFF7C0F818B1332102A000F0A2
:1020A00051FA13B000BD0000626F6172645C626F30
:1020B0006172642E63000000704770B505466C6A5B
:1020C0000020E085E0842046FFF7E0FC70BD70B59D
:1020D00006460025746A20684069C0F3C01594F86C
:1020E0003D00212805D125B10020E084204600F0E4
:1020F000A7F820684069C0F3801594F83E002228B4
:1021000005D125B10020E085204600F06EF8206C56
:1021100040F0100020642046FFF7B8FC70BD70B599
:1021200005466C6A2868006800F02000F8B90020B5
:10213000E0852068C06820F480702168C86020684D
:10214000406920F00100216848612068406920F062
:10215000400021684861202084F83E00206B01285F
:1021600005D12068C06820F010002168C860206B8D
:10217000012804D1A18D2046FFF768FC02E020462B
:10218000FFF784FE70BD70B505466C6A206B0128B0
:1021900005D1A08D41082046FFF758FC02E02046FB
:1021A000FFF78EFE70BD70B505466C6A2868006842
:1021B00000F0200070B90020E0842068406920F021
:1021C0008000216848612068C06840F040002168B4
:1021D000C86002E02046FFF7DBFE70BD70B5044624
:1021E000656A2846FFF7EEFE70BD0168C96821F4F4
:1021F00090710268D1600168496921F001010268AB
:102200005161016B012905D10168C96821F01001F4
:102210000268D160202180F83E10002101637047E0
:1022200010B504462068C06820F040002168C860EE
:10223000202084F83D002046FFF7AAFE002010BDB4
:102240000168C96821F0C0010268D160202180F8CE
:102250003D107047F8B5044694F83E00222869D135
:10226000A068B0F5805F0CD1206950B90025A66A3E
:1022700020684068C0F308003080A06A801CA0621B
:1022800015E0A56A0026A068B0F5805F03D0A068BD
:1022900028B9206918B920684068287004E02068CF
:1022A000406800F07F002870A06A401CA062E08DAA
:1022B000401E80B2E085A8BB2068C06820F02000E6
:1022C0002168C8602068C06820F480702168C860F8
:1022D0002068406920F0010021684861202084F8CE
:1022E0003E00206B01281ED1002020632068C068BA
:1022F00020F010002168C8602068006800F010001D
:1023000010280AD100BF00200090206800680090CB
:1023100020684068009000BF00BFA18D2046FFF7F5
:1023200095FB03E004E02046FFF7B0FD0020F8BD78
:102330000020FCE70220FAE770B50446216809692D
:1023400021F44051E2681143226811612269A168B9
:102350001143626941EA02052168C96841F20C62D1
:10236000914329432268D1602168496921F4407171
:10237000A2691143226851612D4A2168914202D11C
:10238000FFF7BEF801E0FFF7ABF800EBC00101EB8F
:10239000001162689200B1FBF2F100EBC00202EBA7
:1023A000001263689B00B2FBF3F26423B2FBF3F20A
:1023B00002EBC20303EB0212A1EB8201322202EB19
:1023C00001116422B1FBF2F101F0F00100EBC00257
:1023D00002EB001263689B00B2FBF3F26423B2FBD2
:1023E000F3F201EB021200EBC00101EB0011636894
:1023F0009B00B1FBF3F100EBC00303EB0013666835
:10240000B600B3FBF6F36426B3FBF6F303EBC306A7
:1024100006EB0313A1EB8301322303EB01116423C9
:10242000B1FBF3F101F00F0111442268916070BD1E
:102430000038014077B581B0044615460298A06285
:10244000A58500202064222084F83E001C48A16B52
:1024500088621C48A16BC8621B48A16B08630020FE
:10246000A16B486302AE32682368191D2B46A06B2E
:10247000FEF744FB00BF0020009020680068009039
:1024800020684068009000BF00BF00BF002084F8B3
:102490003C0000BF2068C06840F480702168C860BC
:1024A0002068406940F00100216848612068406967
:1024B00040F0400021684861002004B070BD000079
:1024C0001F21000887210008CF200008014691F84D
:1024D0003D00212828D18868B0F5805F0BD10869BC
:1024E00048B90A6A1088C0F308000B685860086A87
:1024F000801C086205E00B6A581C086218780B689B
:102500005860C88C401E80B2C88458B90868C0683A
:1025100020F080000B68D8600868C06840F0400078
:102520000B68D860002070470220FCE710B505F06A
:102530009DF9034809F052F805F0C2F910BD0000FA
:10254000D803002004460D4600BF07A005F0D4F9CB
:102550002A46214608A005F0CFF90FA005F0CCF9D6
:1025600000BF00BFFEE700005B452F6472765F632B
:102570006F6D6D6F6E5D20004572726F725F4861A6
:102580006E646C65722061742066696C653A2573AF
:10259000206E756D3A2564000A000000024800684C
:1025A000C0F30220704700000CED00E010B50028D9
:1025B00004DB0A07130E054A135406E00A07140E3B
:1025C000034A00F00F031B1FD45410BD00E400E0C9
:1025D00018ED00E070B5054607F0F6FA04468CB138
:1025E00000BF09A005F088F92A46214609A005F098
:1025F00083F90DA005F080F900BF002201212046DB
:1026000007F05CF870BD00005B572F7374646C6951
:10261000625D20007468726561643A257320657894
:1026200069743A25642100000A0000002DE9F04198
:1026300004462CB940F25B420A490BA003F0FAFBB6
:10264000A4F1D805FDF7D0FD0746D5F890004668FF
:102650003846FDF7CDFD1EB90421204604F01AFFCF
:10266000BDE8F08115BC000873657269616C2021BA
:102670003D2052545F4E554C4C00000010B507F001
:10268000A3FA28B14FF0FF31024805F00DFC10BD50
:102690000020FCE75806002010B504462CB14FF48A
:1026A000C462054905A003F0C5FB07F08DFA10B11F
:1026B000064805F001FB10BD88C000086C65766512
:1026C0006C203D3D2052545F454F4B005806002082
:1026D00070B504462068A0F114050020286300BFEF
:1026E00000BF284607F022FA002070BD2DE9F04710
:1026F00005460C469046994694F8340000F00400D4
:10270000042809D04946204607F0D2FB064616B1F8
:102710003046BDE8F08700BFB8F1000F03D0B8F134
:10272000010F23D105E004F11401284605F034F926
:1027300022E02E680FE0A6F1140794F8350097F810
:102740003510884206DA04F1140107F1140005F08F
:1027500023F902E03668AE42EDD100BFAE4204D1AB
:1027600004F11401284605F017F905E0B0220449E8
:1027700004A003F05FFB00BF00BF0020C9E700001A
:102780003ABE00083000000010B5044604F1140001
:1027900005F0DDF8002010BD2DE9F0438BB00546B3
:1027A0008946174600242DB940F211121D491EA07A
:1027B00003F040FB2FB94FF489721A491BA003F0B4
:1027C00039FB00E0641C285D202804D0285D09281E
:1027D00001D04C45F6D324B94FF0FF300BB0BDE823
:1027E000F0832146284603F077F8064616B94FF0E5
:1027F000FF30F3E72822002101A805F0CDF901AA56
:102800004946284603F0D8F88046B8F1000F02D1B7
:102810004FF0FF30E2E701A94046B04738600020A2
:10282000DCE70000DFBC0008636D64007265747053
:102830000000000070B505460C46032D02DA00F0DA
:1028400011F970BD16A06168FDF7BAFE20B92146E6
:10285000284600F05FF820E012A06168FDF7B0FEA6
:1028600020B92146284600F085F816E00FA06168DF
:10287000FDF7A6FE20B92146284600F06DF90CE0D0
:102880000CA06168FDF79CFE20B92146284600F0A7
:10289000B1F902E000F0E6F8D3E700BFD1E70000AD
:1028A0006E756D006D6F6465000000007265616497
:1028B0000000000077726974650000007CB5044672
:1028C00000250020009001902078FDF733FDC0B274
:1028D0008DF800006078FDF72DFDC0B28DF8010085
:1028E0002046FDF7A5FD0546052D01DD052000E08C
:1028F00028460546AD1EA0782E2802D02E208DF841
:1029000002002A46A11C6846FDF730FD684605F026
:10291000C7FC7CBD70B506460C46032E02DA00F0FB
:10292000A1F870BDA068FFF7C9FF0546002D06DAC3
:1029300006A0A16804F0E0FF00F094F8F1E72A4651
:1029400009A0A16804F0D8FF00BFEAE750617261F6
:102950006D6574657220696E76616C6964203A20D9
:102960002573210A000000002573203A2025640AFF
:10297000000000002DE9F04107460C46042F03DA61
:1029800000F070F8BDE8F081A06802F0F7FF60B9D0
:10299000A068FFF793FF0646002E0ADA1BA0A16885
:1029A00004F0AAFF00F05EF8ECE7A068FDF7D1FCA8
:1029B00006461DA0E168FDF703FE08B900251EE0EC
:1029C0001BA0E168FDF7FCFD08B9012517E01AA07E
:1029D000E168FDF7F5FD08B9022510E01AA0E168ED
:1029E000FDF7EEFD08B9032509E01BA0E168FDF73E
:1029F000E7FD08B9042502E000F034F8C2E7E9B2C7
:102A0000304605F07DFC00BFBCE7000050617261FC
:102A10006D6574657220696E76616C6964203A2018
:102A20002573210A000000006F7574707574000032
:102A3000696E707574000000696E7075745F7075F2
:102A40006C6C757000000000696E7075745F707555
:102A50006C6C646F776E00006F75747075745F6F67
:102A60006400000010B50CA004F046FF0EA004F0B6
:102A700043FF18A004F040FF26A004F03DFF2D48BE
:102A800004F03AFF2C4804F037FF2C4804F034FFE0
:102A90002BA004F031FF10BD70696E205B6F707465
:102AA000696F6E5D0A00000020206E756D3A206728
:102AB00065742070696E206E756D62657220667235
:102AC0006F6D2068617264776172652070696E0A4B
:102AD00000000000202020206E756D2063616E20B4
:102AE000626520504530322C205045322C20504514
:102AF0002E30322C2050452E322C20706530322C56
:102B0000207065322C2070652E30322C2070652E9E
:102B1000320A000020202020652E672E204D5348C9
:102B2000203E70696E206E756D2050412E31360A40
:102B300000000000CCC3000820C3000868C30008E0
:102B4000202068656C703A20746869732068656C31
:102B500070206C6973740A002DE9F04106460C463A
:102B6000032E03DAFFF77EFFBDE8F081A06802F0D4
:102B700005FF60B9A068FFF7A1FE0546002D0ADA3F
:102B80000DA0A16804F0B8FEFFF76CFFECE7A068A9
:102B9000FDF7DFFB0546284605F0D6FBC7B2012F3F
:102BA00004D129460BA004F0A7FE03E029460DA09E
:102BB00004F0A2FE00BFD7E7506172616D657465D5
:102BC0007220696E76616C6964203A202573210A4F
:102BD0000000000070696E5B25645D203D206F6E13
:102BE0000A00000070696E5B25645D203D206F6601
:102BF000660A00002DE9F04107460C46042F03DA6F
:102C0000FFF730FFBDE8F081A06802F0B7FE60B9C1
:102C1000A068FFF753FE0546002D0ADA15A0A1684B
:102C200004F06AFEFFF71EFFECE7A068FDF791FBDA
:102C3000054617A0E168FDF7C3FC20B116A0E168C6
:102C4000FDF7BEFC08B901260EE014A0E168FDF70F
:102C5000B7FC20B112A0E168FDF7B2FC08B900266C
:102C600002E0FFF7FFFECDE73146284605F08EFB78
:102C700000BFC7E7506172616D6574657220696E4F
:102C800076616C6964203A202573210A00000000F7
:102C900068696768000000006F6E00006C6F770065
:102CA0006F6666002DE9F0410546884616462F46B8
:102CB00027B93722084909A003F0BCF834461CB9EB
:102CC0004FF0FF30BDE8F08122792168386C03684D
:102CD000284698470020F5E74CB9000870696E2037
:102CE000213D2052545F4E554C4C00002DE9F047D9
:102CF0000546894616461F46A846B8F1000F04D17E
:102D000016220A490AA003F095F834460CB1082FA0
:102D100002D00020BDE8F0872168D8F84000826822
:102D20002846904720713846F4E7000037B900087C
:102D300070696E20213D2052545F4E554C4C00006E
:102D40002DE9F0470546894616461F46A846B8F1C4
:102D5000000F04D126220A490AA003F06BF834467A
:102D60000CB1082F02D00020BDE8F087227921683D
:102D7000D8F840004368284698473846F4E70000F2
:102D800041B9000870696E20213D2052545F4E55B4
:102D90004C4C00002DE9F74F0446904600BFFDF76C
:102DA00023FA064603F03CFA48B1874987A004F0AD
:102DB000A3FD40F2914284498FA003F03BF800BF8D
:102DC000FDF712FA814606F0FFFE48B97E498BA056
:102DD00004F092FD40F291427B4987A003F02AF86B
:102DE00000BFFDF701FA834604F05CFD48B1764967
:102DF00090A004F081FD40F2914273497EA003F05F
:102E000019F85846FDF7F4F900BF4846FDF7F0F908
:102E100000BF3046FDF7ECF900BF2CB940F29442F8
:102E200069498EA003F006F8204605F0A5F90328AD
:102E300005D040F2954264498D4802F0FBFF06F050
:102E4000C3FE0546FDF7D0F9824600BF89480068F9
:102E500018B1204687490968884700BF00BF00BFF6
:102E600000202863206AA8420DD1A07FFF2803DA42
:102E7000A07F401CA07798E05046FDF7B9F96FF0AD
:102E80000200BDE8FE8F206AC8B92562FF20607786
:102E90000120A077207FFF280AD0207F216A91F8A7
:102EA0003510884204DA217F4246206A00F0A4FDF2
:102EB00004F1240105F13C0004F052FD75E0019895
:102EC00040B96FF0010028635046FDF791F96FF0AB
:102ED0000100D6E795F8356000BF00BF627A43462F
:102EE000294604F11400FFF701FC074627B15046BC
:102EF000FDF77EF93846C4E76C64607FB0420BDDB5
:102F00006677607F216A91F83510884204DA0222E0
:102F10003146206A00F070FD019800280BDD00BFEB
:102F200000BF01AA002105F1580007F0F9F805F1EA
:102F3000580007F053FA5046FDF75AF905F04AFADF
:102F4000FDF752F98246286B70B34FF00009206AF2
:102F500090F8350095F83510884201D14FF00109FD
:102F600004F1140004F037FD30B96169A1F11400D7
:102F700090F83510617701E0FF206077B9F1000F1C
:102F80000DD0206A00F067FC0646206A90F83500F4
:102F9000B04204D002223146206A00F02DFD504696
:102FA000FDF726F9286B6CE700BF5046FDF720F9C6
:102FB00000BF3148006818B120462F49096888478A
:102FC00000BF00205DE70000EBBE000846756E63A1
:102FD00074696F6E5B25735D3A2073636865647511
:102FE0006C6572206973206E6F7420617661696C04
:102FF00061626C650A0000003000000046756E6377
:1030000074696F6E5B25735D207368616C6C206EF4
:103010006F742062652075736564206265666F72E7
:1030200065207363686564756C6572207374617282
:10303000740A000046756E6374696F6E5B25735D7C
:10304000207368616C6C206E6F74206265207573EC
:10305000656420696E204953520A00006D757465DD
:103060007820213D2052545F4E554C4C000000000A
:10307000DCC600085C020020600200202DE9F74F4A
:10308000054617462DB940F2F712544954A002F0F4
:10309000D1FE284605F070F8022805D04FF4FC72E6
:1030A0004E49534802F0C6FE00BF5248006818B1AE
:1030B000284650490968884700BFFDF795F88046C3
:1030C00000BF00BFA88B002806DDA88B401EA88388
:1030D0004046FDF78DF875E0019830B94046FDF7A0
:1030E00087F86FF00100BDE8FE8F00BFFDF77CF8A8
:1030F000814603F095F848B138493FA004F0FCFB45
:103100004FF40672354947A002F094FE00BFFDF768
:103110006BF8824606F058FD48B9304942A004F0E9
:10312000EBFB4FF406722D493EA002F083FE00BF78
:10313000FDF75AF8834604F0B5FB48B1274948A08B
:1031400004F0DAFB4FF40672244936A002F072FE56
:103150005846FDF74DF800BF5046FDF749F800BF4F
:103160004846FDF745F800BF06F02EFD04466FF017
:103170000801216300BF00BF6A7A3B46214605F182
:103180001400FFF7B3FA064626B14046FDF730F8C3
:103190003046A8E7019800280BDD00BF00BF01AA58
:1031A000002104F1580006F0BBFF04F1580007F0BD
:1031B00015F94046FDF71CF805F00CF9206B08B135
:1031C000206B90E700BF3048006818B128462E49B0
:1031D0000968884700BF002085E7000082BE00081C
:1031E00073656D20213D2052545F4E554C4C0000BC
:1031F00094C600085C02002046756E6374696F6EA9
:103200005B25735D3A207363686564756C65722035
:103210006973206E6F7420617661696C61626C65A0
:103220000A0000003000000046756E6374696F6E1E
:103230005B25735D207368616C6C206E6F74206217
:10324000652075736564206265666F7265207363BF
:10325000686564756C65722073746172740A00002D
:1032600046756E6374696F6E5B25735D207368616C
:103270006C6C206E6F7420626520757365642069C4
:103280006E204953520A00006002002070B50446C7
:1032900006480068FCF7A0FF451E054850F83500B9
:1032A000A0F114062560304670BD000068020020C1
:1032B0000407002070B5044624B95E22134914A007
:1032C00002F0B8FDA06A0078232809D1A16AE0695C
:1032D000884205D9D4E90A010844E16988420AD242
:1032E000214610A004F008FBFCF77EFF054600BF56
:1032F000002DFDD108E0A06A2030E169814203D8A9
:1033000021460FA004F0F8FA70BD00006EC100085D
:1033100074687265616420213D2052545F4E554CA3
:103320004C0000007468726561643A257320737400
:1033300061636B206F766572666C6F770A000000C0
:103340007761726E696E673A2025732073746163CA
:103350006B20697320636C6F736520746F20656EDA
:1033600064206F6620737461636B206164647265AE
:1033700073732E0A0000000010B50948006868B990
:1033800000BF08A004F0B8FA094804F0B5FA09A093
:1033900004F0B2FA00BF01200149086010BD00002E
:1033A000100000205B572F554152545D2000000053
:1033B0003CC400080A0000002DE9F04704460F460F
:1033C000904604B12FB94FF4F972404940A002F081
:1033D00031FDFCF709FF8246A06CC0F38F20002866
:1033E0002DD10026E56C2DB94FF4FE72374943A06C
:1033F00002F020FD2868012813D001202860206CED
:10340000006928B940F20122304941A002F012FDC2
:10341000206C012342463946D0F810C02046E047D0
:1034200001E06FF006065046FCF7E2FE16B9404692
:10343000BDE8F087304605F0FFFC0020F8E7E56CBA
:103440000026204603F0B8FD81462DB940F2112236
:103450001E4939A002F0EEFCC84501DA464600E0FC
:103460004E46E8888119A06CC0F38F20814207D2B4
:10347000EA88286881183246384604F009FB1CE0C7
:10348000A06CC0F38F20EB88C21A2868C118384698
:1034900004F0FEFAEB8803EB060CA36CC3F38F2356
:1034A000ACEB0302A36CC3F38F233B44B5F806C017
:1034B000A3EB0C00296804F0EBFA3146204603F038
:1034C00081FD5046FCF794FE3046B1E754BA00083F
:1034D0002873657269616C20213D2052545F4E55FE
:1034E0004C4C2920262620286461746120213D202F
:1034F00052545F4E554C4C290000000072785F64B6
:103500006D6120213D2052545F4E554C4C0000000F
:1035100073657269616C2D3E6F70732D3E646D61D1
:103520005F7472616E736D697420213D2052545F27
:103530004E554C4C0000000072785F6669666F2043
:10354000213D2052545F4E554C4C00002DE9F04770
:10355000044688461646256D4FF0FF3332464146F5
:10356000281D03F017F90746CFB9FCF73DFE814649
:10357000286801280DD0012028604846FCF738FE55
:10358000206C022332464146D0F810C02046E04766
:1035900002E04846FCF72CFE3046BDE8F08738468E
:1035A00005F04AFC0020F8E770B50546EC6C2CB934
:1035B0004FF4C2720F4910A002F03CFCA088E188D1
:1035C000884207D1A06808B9002070BDA86CC0F37C
:1035D0008F20FAE7A088E188884203DDA088E1888F
:1035E000401AF2E7E088A188411AA86CC0F38F2046
:1035F000401AEAE7FDB9000872785F6669666F20D5
:10360000213D2052545F4E554C4C00002DE9F047AF
:1036100006460F4615462EB94FF490721E491FA05C
:1036200002F008FCA846F46C2CB94FF492721A49C7
:103630001FA002F0FFFB28E0FCF7D6FD8246E088E1
:10364000A188884205D1A06818B95046FCF7D0FD82
:103650001DE0E188206810F80190E088401CE080BF
:10366000E188B06CC0F38F20814201DB0020E08054
:10367000A068012801D10020A0605046FCF7B8FDE9
:1036800087F800907F1C6D1E00BF002DD4D100BFB5
:10369000A8EB0500BDE8F087DFB900087365726923
:1036A000616C20213D2052545F4E554C4C0000006F
:1036B00072785F6669666F20213D2052545F4E55D7
:1036C0004C4C00002DE9F04104460E4615462CB93D
:1036D0004FF4A8721B491C4802F0ACFBA846276DAA
:1036E0002FB94FF4AA72174918A002F0A3FB23E0E8
:1036F00030780A2810D1207E00F0400060B1206CA4
:103700000D21826820469047401C28B94FF0FF31B8
:10371000384602F033FC0FE03178206C8268204696
:103720009047401C28B94FF0FF31384602F026FC84
:1037300002E0761C6D1E00BF002DD9D1A8EB05005C
:10374000BDE8F081EEB90008AC370008747820219C
:103750003D2052545F4E554C4C0000002DE9F04185
:1037600006460F46144626B9EA220F490FA002F07A
:1037700061FBA04611E0306CC168304688470546C1
:10378000681C00B90BE03D707F1C641E307E00F0A9
:10379000400010B10A2D00D101E0002CEBD100BF98
:1037A000A8EB0400BDE8F081BFB900087365726939
:1037B000616C20213D2052545F4E554C4C0000005E
:1037C0002DE9F04104460E4615462CB940F201128F
:1037D0000E490F4802F02EFB2F4612E030780A28DF
:1037E00008D1207E00F0400020B1206C0D218268BD
:1037F000204690473178206C826820469047761C9E
:103800006D1E002DEAD1781BBDE8F081CFB900080C
:10381000AC37000810B504462046FEF7DBFE00BFBB
:10382000FEE770B506F0D0F90446FCF7DDFC05466E
:10383000204604F0E1FE04F1580006F00DFD0120E1
:1038400084F83400204605F0E9FF2846FCF7D0FC58
:1038500004F0C0FD70BD30B501460022002391F890
:103860003640CA6B0DE0A2F12403587F1D7F8542CC
:1038700001DD054600E01D7F2846844200DD044648
:10388000126801F13C008242EDD1204630BD0000BB
:103890002DE9FC5F04468B4616461F46DDE90C9A6F
:1038A000DDE90E5804F1140004F054F82662676252
:1038B000C4F82890C4F82CA02321D4E90A0204F00B
:1038C0006BF9D4E90A3C63441A1F1D4BD4E9080183
:1038D00003F016FFE061202D04DBC22219491AA073
:1038E00002F0A8FA84F8365084F835500020A0631E
:1038F00004F13C0004F02EF8002030346061A06137
:103900002077C4F82080C4F824802060207160658E
:10391000A065303C00902346144A2146019004F1F2
:10392000580006F009FD00BF1148006818B1204694
:103930000F490968884700BF0020BDE8FC9F0000D0
:1039400023380008C9C100087072696F7269747900
:10395000203C2052545F5448524541445F505249E4
:103960004F524954595F4D415800000075390008C5
:103970008802002070B505462C4624B987221649D6
:1039800016A002F057FA94F8340000F0040004285E
:1039900004D088221049164802F04CFA204604F060
:1039A000EBFB012804D089220B49124802F042FAAD
:1039B000FCF71AFC06466FF00100206304F11400C6
:1039C00004F035F8204604F0B5FD3046FCF710FC55
:1039D00004F000FD70BD0000B9C100087468726594
:1039E000616420213D2052545F4E554C4C00000034
:1039F00020C9000864C900082DE9F74F0546924622
:103A000000BF00BF01AA0221284605F057FE95F825
:103A1000340000F0040004283BD16E6C002E37D037
:103A2000304604F0A9FB032832D1344605F11400D6
:103A300003F0EBFF627A5346294604F11400FEF7C7
:103A400055FE8146B9F1000F01D0BDE8FE8F274633
:103A500007F1140003F0BFFF30B97869A0F1140B2F
:103A60009BF83500787701E0FF20787700BF00BF32
:103A700000BF206AFFF7EFFE8046206A90F83510FD
:103A8000414504D052464146206AFFF7B5FF00BFCA
:103A900000BF00BFD9E72DE9F04704460E461746A0
:103AA0009846DDF8209084F80990607A20F00100B3
:103AB0006072E66127620020A062C4F824800025BD
:103AC00006E004F1140101EBC50003F046FF6D1C94
:103AD000012DF6DBBDE8F0872DE9F04104460D46E7
:103AE000FCF782FB0746204603F07DFF50B92068B3
:103AF000A0F11406B06A28603846FCF779FB002074
:103B0000BDE8F0813846FCF773FB4FF0FF30F7E774
:103B100070B50546002406E005F1140101EBC40070
:103B200003F08EFF641C012CF6DB70BD08B51FE0AE
:103B300069461048FFF7D0FF40B106F045F804464B
:103B4000022106F0B5F904F045FC0FE006F042FA58
:103B500004460098001B6FF00041884205D200988F
:103B6000001B0090009805F067FE00BF05F078FC90
:103B7000DEE70000980200200246002106E0012056
:103B80008840904201D108467047491C2029F6DB45
:103B90004FF0FF30F8E7000010B520A003F0ACFEB6
:103BA0002148017821A003F0A7FE1F48007800F00B
:103BB000010010B123A003F09FFE1B48007800F025
:103BC000020010B122A003F097FE1748007800F021
:103BD000040010B121A003F08FFE1348007800F01C
:103BE000080010B121A003F087FE0F48007800F014
:103BF000100010B120A003F07FFE0B48007800F009
:103C0000800030B108480F3001681DA003F074FE39
:103C100002E01FA003F070FE10BD0000627573206B
:103C20006661756C743A0A0029ED00E05343425F07
:103C3000434653525F424653523A30782530325809
:103C40002000000049425553455252200000000018
:103C5000505245434953455252200000494D50525D
:103C6000454349534552522000000000554E5354DD
:103C70004B4552522000000053544B4552522000F5
:103C80005343422D3E424641523A253038580A00AD
:103C90000A00000010B502A003F02EFE002010BDA7
:103CA0001B5B324A1B5B48003EB504460D460020B4
:103CB0000290019000906A4601A902A803F04AFF11
:103CC00009A0029903F018FE0BA0019903F014FE5D
:103CD0000DA0009903F010FEDDE90120811A0EA06D
:103CE00003F00AFE00203EBD746F74616C2020203A
:103CF000203A2025640A0000757365642020202086
:103D0000203A2025640A00006D6178696D756D2088
:103D1000203A2025640A0000617661696C61626C5A
:103D2000653A2025640A000070B505460C46022D50
:103D30004AD13CA16068FCF743FC10B901F0F4FAE9
:103D400040E03AA16068FCF73BFC10B901F0E4FBED
:103D500038E038A16068FCF733FC10B901F044FA90
:103D600030E035A16068FCF72BFC10B900F060FE74
:103D700028E033A16068FCF723FC10B901F068F972
:103D800020E031A16068FCF71BFC10B900F050FF87
:103D900018E02FA16068FCF713FC10B901F0B2F82D
:103DA00010E02EA16068FCF70BFC10B900F0EEFFEC
:103DB00008E02CA16068FCF703FC10B900F0A2FD3C
:103DC00000E002E0002070BD00BF28A003F094FDD9
:103DD0002CA003F091FD13A12DA003F08DFD13A1E4
:103DE00032A003F089FD13A137A003F085FD14A1D3
:103DF0003DA003F081FD10A142A003F07DFD12A1C2
:103E000047A003F079FD12A14CA003F075FD13A1AA
:103E100053A003F071FD13A159A003F06DFD002024
:103E2000D1E70000746872656164000074696D65B3
:103E30007200000073656D006576656E74000000A9
:103E40006D757465780000006D61696C626F780053
:103E50006D73677175657565000000006D656D7047
:103E60006F6F6C0064657669636500005573616708
:103E7000653A206C697374205B6F7074696F6E7340
:103E80005D0A00005B6F7074696F6E735D3A0A00C3
:103E900020202020252D313273202D206C69737451
:103EA00020746872656164730A000000202020207D
:103EB000252D313273202D206C6973742074696D47
:103EC0006572730A0000000020202020252D313269
:103ED00073202D206C6973742073656D6170686F39
:103EE0007265730A0000000020202020252D313249
:103EF00073202D206C697374206D75746578730A56
:103F00000000000020202020252D313273202D209C
:103F10006C697374206576656E74730A0000000026
:103F200020202020252D313273202D206C697374C0
:103F3000206D61696C626F78730A00002020202078
:103F4000252D313273202D206C697374206D6573BB
:103F500073616765207175657565730A00000000FF
:103F600020202020252D313273202D206C69737480
:103F7000206D656D6F727920706F6F6C730A000031
:103F800020202020252D313273202D206C69737460
:103F900020646576696365730A00000070B50446A5
:103FA0000D4601F0C1F9002070BD00002DE9F04779
:103FB000064688462EB940F27912254925A001F01F
:103FC00039FFA6F1D804FCF70FF981460027A06C51
:103FD0004568B8F1000F06D0B8F1010F13D0B8F161
:103FE000020F24D117E08C200059A84203D38C2063
:103FF0000059471B06E0B06CC0F38F218C2000599C
:104000000844471B14E08C200059A84202D98C2098
:104010000059471B0CE08C200059A84206D8B06C10
:10402000C0F38F218C2000590844471B00BF00BFFC
:1040300000BF3FB18C200551032040EA07213046E4
:1040400003F028FA4846FCF7D3F8BDE8F0870000F3
:10405000A3BB000873657269616C20213D20525436
:104060005F4E554C4C00000010B51048006890F8A9
:104070002100C0F3400020B900200D490870084617
:1040800010BD0C48006830B180220A480168084819
:10409000FCF76BFA03E008A10548FCF7A5F908A1B5
:1040A0000348FCF72FFA0248EAE700003801002035
:1040B000340400203C0100206D73682000000000E3
:1040C0003E00000038B5002000901848006820B974
:1040D000A422174917A001F0ADFE14480068D0F8DB
:1040E0000C4214B94FF0FF3038BD13E04FF0FF31F0
:1040F0000E48006804F072FB0C480068D0F80C020F
:10410000A04207D009480068D0F80C4214B94FF01B
:10411000FF30E9E701236A46991E204602F03EFE81
:104120000128E3D19DF80000DEE7000038010020FF
:1041300084BC00087368656C6C20213D2052545F7C
:104140004E554C4C0000000070B504460D46074823
:10415000006820B9C322064906A001F06BFE03489F
:10416000006804F0E7FA002070BD0000380100206C
:1041700092BC00087368656C6C20213D2052545F2E
:104180004E554C4C0000000070B5054600242648F2
:10419000006820B9D622254925A001F04BFE28460B
:1041A00002F02CFD044624B9294626A003F0A4FB06
:1041B00070BD1D480068D0F80C02A04200D1F7E79E
:1041C00040F24311204602F021FD50BB1648006822
:1041D000D0F80C0260B114490968D1F80C0202F061
:1041E000B7FC11490968D1F80C02002102F04AFE1F
:1041F000512200210C48006800F5DB7003F0CCFC74
:10420000002009490968A1F8080207490968A1F8CE
:104210000A0205480068C0F80C421249204602F024
:1042200031FE00BFC4E70000380100209FBC000839
:104230007368656C6C20213D2052545F4E554C4C88
:104240000000000066696E73683A2063616E206E3C
:104250006F742066696E64206465766963653A20D0
:1042600025730A004941000810B504460948006852
:1042700020B99022084909A001F0DCFD054800683A
:1042800090F8210064F341000249096881F8210097
:1042900010BD0000380100206EBC00087368656C1A
:1042A0006C20213D2052545F4E554C4C00000000C4
:1042B000024A1060024A116070470000300100207D
:1042C000340100207CB5002517491848FFF7F0FF9E
:1042D0004FF40471012001F0E7FD1549086008461C
:1042E000006820B913A003F007FB681E7CBD0A20FC
:1042F00014214FF480530022CDE90010134914A07B
:1043000005F046FA044600231A4613A1084800683F
:1043100004F0B2F90120FFF7A7FF1CB115B9204640
:1043200005F068FD0020E1E704CB0008A4CA0008FE
:10433000380100206E6F206D656D6F727920666F99
:1043400072207368656C6C0A00000000614300080D
:10435000747368656C6C000073687278000000000C
:10436000FE48006890F8210020F00100401CFB4945
:10437000096881F82100F9480068D0F80C0238B9C2
:1043800001F02AFF054615B12846FFF7FDFE00BFE4
:10439000FFF76AFE054603F0AFFA5CE2FFF792FE14
:1043A0000446002C00DA56E21B2C05D10120EB4913
:1043B000096881F820004EE2E848006890F8200083
:1043C00001280DD15B2C05D10220E449096881F850
:1043D000200040E20020E149096881F82000BEE0A9
:1043E000DE48006890F820000228F8D10020DB4960
:1043F000096881F82000412C36D1D8480068408CEB
:10440000002807DDD5480068408C401ED349096864
:10441000488404E00020D149096848841BE2CF4861
:104420000068408C00EB8002CC480068263000EB2E
:1044300002115022C948006800F5DB7003F028FB28
:10444000C648006800F5DB70FBF7F2FF80B2C34995
:104450000968A1F80802C1490968A1F80A02BF4821
:10446000006806F0EBFAF6E1422C42D1BB48006846
:10447000418CBA480068808C401E814207DAB748F8
:104480000068408C401CB549096848840CE0B3487A
:104490000068808C38B1B1480068808C401EAF49FC
:1044A0000968488400E0D6E1AC480068408C00EB25
:1044B0008002AA480068263000EB02115022A7486B
:1044C000006800F5DB7003F0E3FAA448006800F52B
:1044D000DB70FBF7ADFF80B2A0490968A1F80802C4
:1044E0009E490968A1F80A029C48006806F0A6FAED
:1044F000B1E1442C11D199480068B0F80A0258B1D2
:1045000097A003F0F9F995480068B0F80A02401E38
:1045100092490968A1F80A029DE1432C1FD18F48F6
:104520000068B0F80A028D490968B1F8081288429B
:1045300014DA8A480068B0F80A228848006800F552
:10454000DB70815C87A003F0D7F984480068B0F87D
:104550000A02401C81490968A1F80A027BE10CB1FA
:10456000FF2C00D177E1092C21D1002503E07CA0AC
:1045700003F0C2F96D1C79480068B0F80A02A8423D
:10458000F5DC7648006800F5DB7006F03FFA73480A
:10459000006800F5DB70FBF74BFF80B26F490968DC
:1045A000A1F808026D490968A1F80A0253E17F2CBD
:1045B00001D0082C74D169480068B0F80A0200B92B
:1045C00049E166480068B0F80802401E634909687E
:1045D000A1F8080261480068B0F80A02401E5F496D
:1045E0000968A1F80A025D480068B0F808025B4952
:1045F0000968B1F80A12884243DD584B1B68B3F8CA
:104600000832564E3668B6F80A629A1B534B1B683E
:10461000B3F80A325B1C514E366806F5DB76991901
:104620004E4B1B68B3F80A624C4B1B6803F5DB73F7
:10463000F01803F06DFA002148480068B0F808222D
:104640004648006800F5DB70815444480068B0F8C3
:104650000A224248006800F5DB70111842A003F0FE
:104660004BF93E480068B0F80A5203E03CA003F062
:1046700043F96D1C39480068B0F80802A842F5DA21
:104680000CE03BA003F038F9002134480068B0F892
:1046900008223248006800F5DB708154DBE0FFE758
:1046A0000D2C01D00A2C2ED12C48006806F0DEF922
:1046B0002A48006890F8210000F0010010B12DA0F8
:1046C00003F01AF925480068B0F80812234800687A
:1046D00000F5DB7001F0CAF8FFF7C6FC054603F0F1
:1046E0000BF9512200211D48006800F5DB7003F032
:1046F00053FA002019490968A1F808021749096806
:10470000A1F80A02A7E015480068B0F8080250288E
:1047100004DB002011490968A1F808020F4800686D
:10472000B0F80A020D490968B1F8081288425ADA4D
:104730000A4B1B68B3F80832084E3668B6F80A62AE
:104740009A1B064B1B68B3F80A62044B1B6803F5FF
:10475000DB73F118014B1B680EE0000038010020EC
:1047600008000000256300000825732020080000D1
:10477000082008000A000000B3F80A325B1C364E1D
:10478000366806F5DB76981903F0C2F932480068FE
:10479000B0F80A223048006800F5DB7084542E48D7
:1047A000006890F8210000F0010058B12A48006824
:1047B000B0F80A222848006800F5DB70111827A01D
:1047C00003F09AF824480068B0F80A5204E0AFF207
:1047D000700003F091F86D1C1F480068B0F80802E3
:1047E000A842F4DC14E01C480068B0F808221A481B
:1047F000006800F5DB7084541748006890F82100C9
:1048000000F0010020B12146AFF2A80003F074F8D7
:10481000002411480068B0F80802401C0E490968DD
:10482000A1F808020C480068B0F80A02401C0A49C6
:104830000968A1F80A0208480068B0F80802502880
:1048400008DB002004490968A1F808020249096848
:10485000A1F80A0200BFA1E538010020257300007D
:1048600010B51448006800F0020010B112A003F067
:1048700043F81048006800F0804088B10D48C01E21
:10488000007808B1FFF788F90A48001F007808B1DE
:1048900000F036FF0748801E008808B106F05CFF74
:1048A0000448006800F0004010B109A003F024F8AB
:1048B00010BD00002CED00E06661696C6564207637
:1048C0006563746F722066657463680A0000000097
:1048D0006465627567206576656E740A0000000085
:1048E0000CE0002405E0064850F8245005B1A84724
:1048F000641C042CF7D302F00BF900BFF1E70000B1
:10490000480600202DE9F04F8FB04FF000080FF25D
:10491000AC0A082302AA09210AA800F02FF90825E9
:1049200053462A46294627A002F0E6FF284601F012
:10493000BBF82EA002F0E0FF00BF0AA9404600F03D
:1049400032F9804600262EE002A850F82600A0F199
:104950000C07FBF749FC8346387A20F080009DF86D
:104960003010884203D05846FBF742FC1AE0584604
:10497000FBF73EFC3C460FF29809207D1F2807DA22
:10498000207D254951F8200010B1207D51F820905C
:10499000A07E234608222946CDE900901FA002F000
:1049A000ABFF00BF761C0E98B042CDDCB8F1000F13
:1049B000C3D100200FB0BDE8F08F000064657669B8
:1049C00063650000252D2A2E2A7320202020202018
:1049D0002020207479706520202020202020202095
:1049E00072656620636F756E740A0000202D2D2D90
:1049F0002D2D2D2D2D2D2D2D2D2D2D2D2D2D2D2DE7
:104A00002D202D2D2D2D2D2D2D2D2D2D0A0000008D
:104A1000556E6B6E6F776E00F0BC0008252D2A2E48
:104A20002A7320252D32307320252D38640A00008A
:104A30002DE9F04F8FB04FF000080FF2C4090823A2
:104A400002AA04210AA800F099F808254B462A4634
:104A500029462DA002F050FF284601F025F833A08A
:104A600002F04AFF00BF0AA9404600F09CF88046C9
:104A700000263BE002A850F82600A0F10C07FBF747
:104A8000B3FB8346387A20F080009DF830108842CE
:104A900003D05846FBF7ACFB27E05846FBF7A8FBD2
:104AA0003C4604F1140002F08EFFA8B904F1140092
:104AB00002F0A1FF8246E069234608222946CDE99B
:104AC000000A22A002F018FF04F1140006F03CF8DE
:104AD00024A002F011FF07E0E069234608222946DE
:104AE000009021A002F008FF00BF761C0E98B04293
:104AF000C0DCB8F1000FB6D100200FB0BDE8F08FD8
:104B00006576656E74000000252D2A2E2A732020FC
:104B10002020202073657420202020737573706519
:104B20006E64207468726561640A000020202D2D77
:104B30002D2D2D2D2D2D2D2D202D2D2D2D2D2D2DB2
:104B40002D2D2D2D2D2D2D0A00000000252D2A2E76
:104B50002A73202030782530387820253033643A85
:104B6000000000000A000000252D2A2E2A732020B4
:104B700030782530387820300A0000002DE9F047E1
:104B800004460D4616461F46284603F0E1FA8146C4
:104B900009F10408C4F8008025726660E76000200F
:104BA0002061BDE8F0872DE9F84F07460C464FF02D
:104BB000000A00202061E06808B1207A10B90020C6
:104BC000BDE8F88FD4F800801FB945464FF0010AC0
:104BD00000E03D46FBF708FB0090BAF1000F0ED154
:104BE000A5F10C0B9BF8080020F08000217A884288
:104BF00004D00098FBF7FCFA0020E1E700BF002694
:104C0000D4F804900BE02D68454501D1002507E05C
:104C1000761C49F8045BE068B04200D100E0F2E79E
:104C200000BF0098FBF7E4FA26612846C8E70000B9
:104C30002DE9F04F91B04FF000080FF2D80908238A
:104C400004AA05210CA8FFF799FF08254B462A4620
:104C5000294632A002F050FE284600F025FF38A079
:104C600002F04AFE00BF0CA94046FFF79CFF8046B9
:104C7000002645E004A850F82600A0F10C07FBF739
:104C8000B3FA8346387A20F080009DF838108842C5
:104C900003D05846FBF7ACFA31E05846FBF7A8FAC8
:104CA0003C4604F1140002F08EFEB8B904F1140081
:104CB00002F0A1FE8246208C618C23460822CDE9B9
:104CC000010A0091294625A002F016FE04F1140005
:104CD00005F03AFF19A002F00FFE0FE004F11400F6
:104CE00002F089FE8246208C618C23460822CDE9A1
:104CF000010A009129461FA002F0FEFD00BF761CAC
:104D00001098B042B6DCB8F1000FACD1002011B061
:104D1000BDE8F08F6D61696C626F7800252D2A2ED9
:104D20002A7320656E7472792073697A65207375B1
:104D30007370656E64207468726561640A000000B7
:104D4000202D2D2D2D20202D2D2D2D202D2D2D2DC7
:104D50002D2D2D2D2D2D2D2D2D2D0A00252D2A2EDD
:104D60002A732025303464202025303464202564C3
:104D70003A000000252D2A2E2A7320253034642085
:104D800020253034642025640A0000002DE9F04F0E
:104D900093B04FF0000A0FF2E00B082305AA194662
:104DA0000DA8FFF7EBFE08265B463246314634A0DD
:104DB00002F0A2FD304600F077FE3BA002F09CFD21
:104DC00000BF0DA95046FFF7EEFE8246002748E0DF
:104DD00005A850F82700A0F10C08FBF705FA12907F
:104DE00098F8080020F080009DF83C10884203D01D
:104DF0001298FBF7FDF933E01298FBF7F9F94446F6
:104E00000025D4F82C9002E06D1CD9F8009004F134
:104E10002C008145F8D1002D14DDD4E90920E16989
:104E20002346CDE90205CDE900120822314627A02C
:104E300002F062FD04F12C0005F086FE22A002F0D3
:104E40005BFD0CE0D4E90920E1692346CDE90205C8
:104E5000CDE900120822314623A002F04DFD00BF2B
:104E60007F1C1198B842B3DCBAF1000FA9D1002021
:104E700013B0BDE8F08F00006D656D706F6F6C0052
:104E8000252D2A2E2A7320626C6F636B20746F7439
:104E9000616C20667265652073757370656E642041
:104EA0007468726561640A00202D2D2D2D20202D3F
:104EB0002D2D2D20202D2D2D2D202D2D2D2D2D2D49
:104EC0002D2D2D2D2D2D2D2D0A000000252D2A2EC6
:104ED0002A73202530346420202530346420202596
:104EE0003034642025643A00252D2A2E2A7320258B
:104EF0003034642020253034642020253034642070
:104F000025640A002DE9F04F8FB04FF000080FF232
:104F1000D009082302AA06210AA8FFF72FFE0825B8
:104F20004B462A46294631A002F0E6FC284600F00E
:104F3000BBFD36A002F0E0FC00BF0AA94046FFF727
:104F400032FE8046002641E002A850F82600A0F17B
:104F50000C07FBF749F98346387A20F080009DF86A
:104F60003010884203D05846FBF742F92DE05846EE
:104F7000FBF73EF93C4604F1140002F024FDA8B909
:104F800004F1140002F037FD8246A08C234608226B
:104F90002946CDE9000A23A002F0AEFC04F114007A
:104FA00005F0D2FD24A002F0A7FC0DE004F11400EE
:104FB00002F021FD8246A08C234608222946CDE935
:104FC000000A1EA002F098FC00BF761C0E98B042AA
:104FD000BADCB8F1000FB0D100200FB0BDE8F08FFF
:104FE0006D7367717565756500000000252D2A2EAB
:104FF0002A7320656E7472792073757370656E64A0
:10500000207468726561640A00000000202D2D2D57
:105010002D20202D2D2D2D2D2D2D2D2D2D2D2D2DDA
:105020002D0A0000252D2A2E2A73202530346420D5
:105030002025643A000000000A000000252D2A2ED9
:105040002A732025303464202025640A00000000E3
:105050002DE9F04F93B04FF000080FF2E809082354
:1050600006AA03210EA8FFF789FD08254B462A460C
:10507000294636A002F040FC284600F015FD3FA06E
:1050800002F03AFC00BF0EA94046FFF78CFD8046B7
:1050900000264DE006A850F82600A0F10C07FBF70B
:1050A000A3F88346387A20F080009DF840108842AB
:1050B00003D05846FBF79CF839E05846FBF798F8C0
:1050C0003C4604F1140002F07EFCD8B904F114004F
:1050D00002F091FC8246607FA17F226ACDE9030A3B
:1050E000CDE90121082023460246294600902DA043
:1050F00002F002FC04F1140005F026FD31A002F0DC
:10510000FBFB13E004F1140002F075FC8246607FA3
:10511000A17F226ACDE9030ACDE9012108202346B7
:1051200002462946009028A002F0E6FB00BF761C4C
:105130001298B042AEDCB8F1000FA4D1002013B039
:10514000BDE8F08F6D75746578000000252D2A2E5E
:105150002A732020206F776E65722020686F6C6440
:10516000207072696F726974792073757370656EDF
:105170006420746872656164200A0000202D2D2D62
:105180002D2D2D2D2D202D2D2D2D202D2D2D2D2D69
:105190002D2D2D202D2D2D2D2D2D2D2D2D2D2D2D4C
:1051A0002D2D0A00252D2A2E2A7320252D382E2A52
:1051B0007320253034642025386420202530346461
:1051C000200000000A000000252D2A2E2A73202529
:1051D0002D382E2A73202530346420253864202071
:1051E000253034640A0000002DE9F04F8FB04FF0F5
:1051F00000080FF2D009082302AA02210AA8FFF72B
:10520000BDFC08254B462A46294631A002F074FB16
:10521000284600F049FC35A002F06EFB00BF0AA949
:105220004046FFF7C0FC8046002641E002A850F847
:105230002600A0F10C07FAF7D7FF8346387A20F052
:1052400080009DF83010884203D05846FAF7D0FF0E
:105250002DE05846FAF7CCFF3C4604F1140002F06A
:10526000B2FBA8B904F1140002F0C5FB8246A08B82
:10527000234608222946CDE9000A22A002F03CFB81
:1052800004F1140005F060FC22A002F035FB0DE0F3
:1052900004F1140002F0AFFB8246A08B23460822E3
:1052A0002946CDE9000A1CA002F026FB00BF761CAF
:1052B0000E98B042BADCB8F1000FB0D100200FB0A8
:1052C000BDE8F08F73656D6170686F7265000000F6
:1052D000252D2A2E2A732076202020737573706561
:1052E0006E64207468726561640A0000202D2D2DA3
:1052F000202D2D2D2D2D2D2D2D2D2D2D2D2D2D0A0E
:1053000000000000252D2A2E2A732025303364202A
:1053100025643A000A000000252D2A2E2A73202534
:105320003033642025640A002DE9F04FB5B04FF00A
:10533000000A0FF2281B082327AA01212FA8FFF734
:105340001DFC4FF008085B4642464146454802F0C6
:10535000D3FA404600F0A8FB43A002F0CDFA00BF0C
:105360002FA95046FFF71FFC82464FF000096BE063
:1053700027A850F82900A0F10C05FAF735FF349062
:10538000287A20F080009DF8C410884203D0349819
:10539000FAF72EFF56E08C22294604A802F078FB8B
:1053A0003498FAF725FF2C4694F835002346082256
:1053B000414600903CA002F09FFA94F8340000F0BF
:1053C0000706022E03D13BA002F096FA17E006F082
:1053D0000400042803D13AA002F08EFA0FE01EB9AF
:1053E0003AA002F089FA0AE0012E03D13AA002F0B5
:1053F00083FA04E0032E02D13AA002F07DFAA76AF4
:1054000000E07F1C38782328FBD0206B04F0A2F842
:105410000390D4E90A10791A401A64214843E16ADA
:10542000B0FBF1F002900398616DCDE90010E369E3
:10543000A06AC01AE36AC1181A462DA0029B02F0A6
:105440005BFA00BF09F101093398484590DCBAF1D5
:10545000000F85D1002035B0BDE8F08F746872650B
:1054600061640000A8C40008202D2D2D20202D2DC2
:105470002D2D2D2D2D202D2D2D2D2D2D2D2D2D2D69
:10548000202D2D2D2D2D2D2D2D2D2D20202D2D2D73
:105490002D2D2D20202D2D2D2D2D2D2D2D2D2D2063
:1054A0002D2D2D0A00000000252D2A2E2A732025DF
:1054B00033642000207265616479202000000000C0
:1054C0002073757370656E640000000020696E695A
:1054D000742020200000000020636C6F7365202082
:1054E000000000002072756E6E696E67000000009B
:1054F00020307825303878203078253038782020D2
:105500002020253032642525202020307825303891
:10551000782025730A0000002DE9F04790B04FF085
:1055200000080FF2CC09082303AA0A210BA8FFF7F1
:1055300025FB08264B46324631462FA002F0DCF907
:10554000304600F0B1FA39A002F0D6F900BF0BA93D
:105550004046FFF728FB8046002738E003A850F8B4
:105560002700A0F10C05FAF73FFE8246287A20F0CA
:1055700080009DF83410884203D05046FAF738FE78
:1055800024E05046FAF734FE2C46D4E909012346BC
:105590000822CDE90001314630A002F0ADF9607A71
:1055A00000F0010018B133A002F0A6F902E035A026
:1055B00002F0A2F9607A00F0020018B135A002F002
:1055C0009BF902E036A002F097F900BF7F1C0F980C
:1055D000B842C3DCB8F1000FB9D104F0FBFC0446BB
:1055E000214632A002F088F9002010B0BDE8F08713
:1055F00074696D6572000000252D2A2E2A73202003
:10560000706572696F64696320202074696D656FCD
:10561000757420202020616374697661746564204C
:10562000202020206D6F64650A000000202D2D2DA4
:105630002D2D2D2D2D2D2D202D2D2D2D2D2D2D2DA7
:105640002D2D202D2D2D2D2D2D2D2D2D2D2D202DA4
:105650002D2D2D2D2D2D2D2D0A000000252D2A2E2E
:105660002A73203078253038782030782530387803
:1056700020000000616374697661746564202020F5
:10568000000000006465616374697661746564207C
:1056900000000000706572696F6469630A000000B1
:1056A0006F6E652073686F740A0000006375727214
:1056B000656E74207469636B3A3078253038780AE7
:1056C000000000000021012002F01AFE0FE001217D
:1056D000084602F05BFE4FF4FA7004F01DFA002158
:1056E000012002F053FE4FF4FA7004F015FAEEE7D1
:1056F00010B5044600F062FDFFF7E4FF10BD0000A6
:1057000010B51CA002F0F8F81F4801781FA002F0A5
:10571000F3F81D48007800F0010010B121A002F05C
:10572000EBF81948007800F0020010B120A002F058
:10573000E3F81548007800F0080010B11FA002F04F
:10574000DBF81148007800F0100010B11EA002F044
:10575000D3F80D48007800F0800030B10A480C30D2
:1057600001681CA002F0C8F802E01EA002F0C4F814
:1057700010BD00006D656D206D616E61676520660E
:1057800061756C743A0A000028ED00E05343425FF3
:10579000434653525F4D4653523A30782530325883
:1057A000200000004941434356494F4C200000006F
:1057B0004441434356494F4C200000004D554E5341
:1057C000544B4552522000004D53544B45525220E9
:1057D000000000005343422D3E4D4D41523A2530CA
:1057E00038580A000A0000002DE9F04781460026DB
:1057F000002799F8000028B90021084600F08CF82D
:10580000BDE8F087164805681EE0D5F800804846D8
:10581000FAF70EFE8246524641464846FAF727FE00
:1058200088B926B947463846FAF702FE0646414689
:10583000384605F0C3FE0446B44200DA2646414627
:1058400008A002F059F80C35074800688542DCD3FF
:1058500027B1324639464846FAF787FE00BFCFE700
:105860003001002025730A003401002038B50446B9
:105870000D4601E0641C6D1E2DB120782028F9D062
:1058800020780928F6D00DB9002038BD6A4629468F
:105890002046FCF781FF08B90098F6E7204600E0B3
:1058A000401C0178202902D001780029F8D100217C
:1058B0000170214602A002F01FF84FF0FF30E4E72C
:1058C00025733A20636F6D6D616E64206E6F742076
:1058D000666F756E642E0A002DE9F04106460D468E
:1058E00000270B4804680BE02A4631462068FAF787
:1058F000BEFD20B92068405D08B9A76804E00C34FB
:10590000044800688442EFD300BF3846BDE8F08108
:10591000300100203401002070B505460E460AA073
:1059200001F0EAFF0F48046805E00FA0D4E9001277
:1059300001F0E2FF0C340F4800688442F5D30EA05A
:1059400001F0DAFF002070BD52542D546872656179
:1059500064207368656C6C20636F6D6D616E647339
:105960003A0A000030010020252D313673202D2009
:1059700025730A00340100200A00000010B5044617
:105980000CB1207808B9002010BD20782B2802D057
:1059900020782D2800D1641C09E0FAF7C3FC0068C8
:1059A0002178405C202801D00020EDE7641C20789D
:1059B0000028F2D10120E7E72DE9F04782460E46A4
:1059C000904654460025002755E003E00020207053
:1059D000641C6D1C2078202802D02078092801D171
:1059E000B542F3D30A2F12D326A001F085FF4FF062
:1059F000000906E058F829102AA001F07DFF09F1FE
:105A00000109B945F6D326A001F076FF35E0B5428D
:105A100000D332E0207822281CD1641C6D1C48F889
:105A200027407F1C09E020785C2804D16078222878
:105A300001D1641C6D1C641C6D1C2078222801D0CF
:105A4000B542F0D3B54200D317E000202070641CAB
:105A50006D1C10E048F827407F1C01E0641C6D1CA1
:105A60002078202804D02078092801D0B542F5D329
:105A7000B54200D301E0B542A7D300BF3846BDE828
:105A8000F0870000546F6F206D616E79206172673E
:105A9000732021205765206F6E6C79205573653A0D
:105AA0000A0000002573200010B5044602E004A09F
:105AB00001F022FF201EA4F10104F8D110BD000066
:105AC0002D0000002DE9F04104460D46A06AA842D1
:105AD00004D982221F4920A000F0ACF9E06AA84254
